:02000000FA29DB
:1000A0008B135128071408006400080007308B20C8
:1000B0000800FE30870508008C1C5C288C100800A6
:1000C0000130AE200230AE200800851D69280130C5
:1000D0000800003008007C309200053093008C103E
:1000E000080064008001840A040603190034040631
:1000F0007228C00006084005031D80280130080052
:100100000030080007307920003A031D89280130AB
:10011000080000300800C000400988054009870534
:1001200040090F3986000800C1000130C000410AB3
:100130009B280310C00DFF3E031D9928400887042B
:10014000080010088F394038900088010830890075
:100150008E133008C1391038B0000800C1000130DA
:10016000C000410AB5280310C00DFF3E031DB3288F
:100170004008FF3A8705080054205620A120D920C6
:10018000652010214008DD004108DE004208DF0044
:100190006B20080060205220023094200830C300F9
:1001A000C930C200C20BD228C30BD228D728602086
:1001B000080060205920013094200830C300C93065
:1001C000C200C20BE128C30BE128E628602008002A
:1001D000C1004008C2004108031DF5281930400243
:1001E0000318FA280130C207FA2840080319FA2830
:1001F0000130C202420808000908C1000F30C105E1
:100200000E0D0E0D0139C000C20108304106031D5C
:100210000E294008031D0E290130C20042080800C3
:10022000C3005A08C4005B08C5005C08C600430848
:10023000031D1E290130C4001930C6004408C00047
:100240004508C1004608C2000800100E0739C0006A
:10025000300C1F39C1001208C2001308C30008087F
:10026000C4000730C405C50104304006031D4929F8
:1002700008304106031D49297C304206031D4929E7
:1002800005304306031D49294408031D492901304F
:10029000C50045080800BC205C2002305D02031840
:1002A00065291A305F020318652902305E020318BF
:1002B0006529FC20003A031965298220003A031DB4
:1002C00065292521003A031D662950205F08C000DA
:1002D0006520E820DF005D08C0005E08C1005F08FF
:1002E000C2009E214E30840040088000840A4108EC
:1002F0008000840A42088000840A43088000840A3F
:1003000044088000840A450880004E08DD004F083C
:10031000DE00520803198E295308DF005108031923
:10032000932950209C29500803199C294F08031D2C
:100330009B29D9209C29CA2054204C29483084006C
:1003400054088000840A55088000840A56088000FA
:10035000840A57088000840A58088000840A5908D3
:1003600080004008C8004108C900CA01CB01CC0187
:10037000CD01D62908304202031CE6290130CC0009
:100380001930CD000130C8000130CA004108031DFA
:10039000CC290130C900E629C901E6294208031D1C
:1003A000E629C801E6290130CB00E6294008C6004D
:1003B000C7014708003A0319DE29D3294608003A45
:1003C0000319BA29013A0319CE29D32940308400F0
:1003D00048088000840A49088000840A4A0880008E
:1003E000840A4B088000840A4C088000840A4D0867
:1003F00080000800543084006030712083014B2954
:02400E009E38DA
:00000001FF
