:100000000128C501C601C701830106285F208C1C99
:1000100007288C10023045020318222802304602BD
:10002000031822281A304702031822289D20003A7C
:10003000031922288220003A03192228C920003AF5
:1000400003192328E620D720003A031D2E28193053
:10005000470203184D280130C7074D2847080319E8
:100060004D280130C7024D2808304702031C5D2887
:100070001930C7000130C5004608031D4328013070
:10008000C600DD205D28C601D1205D284708031D7C
:100090005D28C5015D28E6205D284508C300C40130
:1000A0004408003A031955284B284308003A03191D
:1000B0003428013A031946284B28640007286400B5
:1000C000F83087050830860010088F3940389000D6
:1000D0008801083089008E133008C1391038B0000B
:1000E000D120C501C601C701D720003A031D7C28D5
:1000F0000130C5001930C7007C30920005309300F4
:100100008C100800C001100E0739043A031D9B280B
:10011000300C1F39083A031D9B287C301206031D42
:100120009B2805301306031D9B2808080739031D6B
:100130009B280130C000400808000908C1000F30AA
:10014000C1050E0D0E0D0139C000C2010830410677
:10015000031DAF284008031DAF280130C20042082C
:10016000080006080F39083AC00007080639C0041D
:100170004008031DBD280130080000300800083089
:10018000C100C930C000C00BC328C10BC328C82898
:100190000800B120003A031DCF28013008000030CC
:1001A0000800E920E320EC20BF20E9200800851D9D
:1001B000DB280130080000300800E920F020EE20A4
:1001C000BF20E9200800FE3087050800E9208B13D6
:1001D000E828F9308705080087140800071508008B
:0401E00007140800F8
:02400E009E38DA
:00000001FF
