:1000000009C016C015C014C013C012C03AC010C039
:100010000FC00EC011241FBECFE9CDBF20E0A0E667
:10002000B0E001C01D92A536B207E1F76ED09DC1C8
:10003000E7CFC19A0895C198089598B321E030E0C0
:1000400001C0220F8A95EAF7922B98BB089598B3C6
:1000500021E030E001C0220F8A95EAF7209529239C
:1000600028BB089587BB089527B398B32E3139F480
:10007000282F2E71281303C09E7181E0961380E013
:1000800008951F920F920FB60F921124CF92DF9214
:10009000EF922F933F934F935F936F937F938F9341
:1000A0009F93AF93BF93CF93EF93FF93109264000E
:1000B000C0906100D0906200E09063008E2DB60188
:1000C00024D19091600089130BC086B36E2D81708E
:1000D000DED0C82FB60119D180936000C0936300B1
:1000E000FF91EF91CF91BF91AF919F918F917F91B0
:1000F0006F915F914F913F912F91EF90DF90CF9053
:100100000F900FBE0F901F901895CDB7DD27C650EA
:10011000CDBFF894A89584B7877F84BF88E19CE021
:100120000FB6F894A89581BD0FBE91BD01D180E8AE
:1001300093E00FB6F89486BD96BD0FBE16B888B989
:1001400085B5836085BD85B58D7F85BD11E018BB04
:100150001BBE15BAEFD086B38170CED06B01E82EEE
:10016000D4D080936000C0926100D0926200E0928F
:1001700063001093640082E08FBD83BF85E986BF72
:1001800012BE84E089BF88BF85B7877E85BF78941B
:10019000FF24F39480916100823018F0E5D0F89448
:1001A000FFCF809162008230C8F780916400823076
:1001B000A8F7809163008A3188F7C09BEFCF56B5CE
:1001C00041B53FB593B786B729B7533039F74C30AF
:1001D00029F7323019F7923009F78539F9F681E0BD
:1001E00090E0243011F090E080E0892BB9F280910A
:1001F00062008FD08111D2CF8091640081113DC007
:10020000BFB6F894C0906100D0906200E0906300A7
:100210000E2DF09264008E2DB60177D09091600083
:10022000891719F0A1D0F894FFCF8E2DB6013AD0DE
:10023000132F29833A834B835C836D837E83611103
:10024000072FC22ED12EE02E802FB6015ED08093D4
:100250006000C0926100D0926200E0926300BFBE75
:10026000A8958C81882319F07FD0F894FFCF8B81DB
:10027000882319F0111109C05DD085B7806285BF50
:10028000889585B78F7D85BF85CF5FD0F6CF8111EB
:1002900005C0693108F46F5F862F08956623E1F386
:1002A0006150FACFCF93DF93CDB7DD27C650CDBFD6
:1002B0009B01662329F06130A1F070E051E016C087
:1002C0008830B0F031E0711130E050E079E161E068
:1002D00021E0462F80E090E0CA5FCDBFDF91CF9153
:1002E0000895811101C020E070E050E060E0F1CF9E
:1002F00050E060E070E0EDCF811104C089E161E081
:1003000070E0089580E060E0FBCF67278627809546
:10031000089560E0882319F0813041F46EE08EE0AA
:10032000A3DE91E0811190E0892F089580E0F9CF5C
:100330008EE198CE80DE82E08ADE8BED95E001973B
:10034000F1F700C0000083E082CE82E080DE83E02F
:100350007EDE6FDE83E071DE8BED95E00197F1F7D5
:0E03600000C0000082E069CE0895F894FFCF3F
:00000001FF
