:02000000FA29DB
:1000BA008B135E2807140800640008000730982094
:1000CA000800FE30870508008C1C69288C1008007F
:1000DA000130B8200230B8200800851D762801308A
:1000EA00080000300800F9309200073093008C10A5
:1000FA00080064008001840A040603190034040617
:10010A007F28C00006084005031D8D28013008001D
:10011A000030080007308620003A031D9628013077
:10012A00080000300800C00040098805400987051A
:10013A0040090F398600080070309004880189153B
:10014A008E133008C1391038B0000800C1000130E0
:10015A00C000410AB2280310C00DFF3E031DB0289B
:10016A00400887040800C1000130C000410ABF28C6
:10017A000310C00DFF3E031DBD284008FF3A870546
:10018A0008006D205F200230AB203F30C30055309D
:10019A00C200C20BCE28C30BCE286D2008006D20EA
:1001AA0066200130AB203F30C3005530C200C20B7D
:1001BA00DC28C30BDC286D20080061206320A12005
:1001CA00D420722017214008DD004108DE004208D1
:1001DA00DF00782008000908C1000830C1050E0DAB
:1001EA000E0D0139C000C201410803190129400856
:1001FA00031D01290130C20042080800C10040085D
:10020A00C2004108031D102919304002031815299C
:10021A000130C20715294008031915290130C20205
:10022A0042080800C3005A08C4005B08C5005C08FD
:10023A00C6004308031D25290130C4001930C60031
:10024A004408C0004508C1004608C2000800100E54
:10025A000739C000300C1F39C1001208C200130848
:10026A00C300C40107304006031D4929083041066E
:10027A00031D4929F9304206031D4929073043065F
:10028A00031D49290130C40044080800E2206920FE
:10029A0002305D02031865291A305F0203186529C6
:1002AA0002305E0203186529F020003A0319652915
:1002BA008F20003A031D65292C21003A031D662967
:1002CA005D205F08C00072200321DF005D08C000C6
:1002DA005E08C1005F08C2009E214E3084004008BB
:1002EA008000840A41088000840A42088000840A47
:1002FA0043088000840A44088000840A4508800074
:10030A004E08DD004F08DE00520803198E295308F3
:10031A00DF005108031993295D209C29500803190D
:10032A009C294F08031D9B29D4209C29C6206120A3
:10033A004C294830840054088000840A55088000FB
:10034A00840A56088000840A57088000840A5808DC
:10035A008000840A590880004008C8004108C90082
:10036A00CA01CB01CC01CD01D62908304202031CB7
:10037A00E6290130CC001930CD000130C800013027
:10038A00CA004108031DCC290130C900E629C90168
:10039A00E6294208031DE629C801E6290130CB00F7
:1003AA00E6294008C600C7014708003A0319DE29B2
:1003BA00D3294608003A0319BA29013A0319CE2962
:1003CA00D3294030840048088000840A4908800004
:1003DA00840A4A088000840A4B088000840A4C0870
:1003EA008000840A4D088000080054308400603080
:0603FA007E2083014B2967
:02400E009E38DA
:00000001FF
