:10000000FA2900308A000408840A82070034013487
:020010000734B3
:100060008B1331280714080064000800073059205A
:100070000800FE30870508008C1C3C288C10080006
:1000800001307C2002307C200800851D4928013089
:100090000800003008007C309200053093008C107E
:1000A000080064008001840A040603190034040671
:1000B0005228C000400988054009870540090F39CA
:1000C00086000800C1000130C000410A6928031001
:1000D000C00DFF3E031D6728400887040800100874
:1000E0008F39403890008801083089008E1330081D
:1000F000C1391038B0000800C1000130C000410A09
:1001000083280310C00DFF3E031D81284008FF3ADD
:1001100087050800342036206F20A7204520DE20E8
:100120004008DD004108DE004208DF004B200800E7
:1001300040203220023062200830C300C930C200A3
:10014000C20BA028C30BA028A528402008004020EF
:100150003920013062200830C300C930C200C20B10
:10016000AF28C30BAF28B42840200800C1004008C6
:10017000C2004108031DC328193040020318C828D3
:100180000130C207C82840080319C8280130C2023C
:10019000420808000908C1000F30C1050E0D0E0D00
:1001A0000139C000C20108304106031DDC284008A7
:1001B000031DDC280130C20042080800C3005A08B1
:1001C000C4005B08C5005C08C6004308031DEC289A
:1001D0000130C4001930C6004408C0004508C10001
:1001E0004608C2000800C5004508031DF928C001E3
:1001F000FE284503031D0229C001C00A07300A2159
:10020000C6000329C6014608031D0829013008005D
:1002100000300800C1000608C4000F30C4050708FC
:10022000C2000730C205C30108304406031D22295D
:1002300044084105031D222942084006031D2229C6
:100240000130C30043080800100E0739C000300C0D
:100250001F39C1001208C2001308C3000808C400F7
:100260000730C405C50104304006031D4829083085
:100270004106031D48297C304206031D48290530EC
:100280004306031D48294408031D48290130C500C1
:10029000450808008A203C2002305D0203186529C9
:1002A0001A305F020318652902305E0203186529BF
:1002B000CA20003A031965295E08F320003A031D9D
:1002C00065292421003A031D662930205F08C000FB
:1002D0004520B620DF005D08C0005E08C1005F0851
:1002E000C2009E214E30840040088000840A4108EC
:1002F0008000840A42088000840A43088000840A3F
:1003000044088000840A450880004E08DD004F083C
:10031000DE00520803198E295308DF005108031923
:10032000932930209C29500803199C294F08031D4C
:100330009B29A7209C29982034204B2948308400F1
:1003400054088000840A55088000840A56088000FA
:10035000840A57088000840A58088000840A5908D3
:1003600080004008C8004108C900CA01CB01CC0187
:10037000CD01D62908304202031CE6290130CC0009
:100380001930CD000130C8000130CA004108031DFA
:10039000CC290130C900E629C901E6294208031D1C
:1003A000E629C801E6290130CB00E6294008C6004D
:1003B000C7014708003A0319DE29D3294608003A45
:1003C0000319BA29013A0319CE29D32940308400F0
:1003D00048088000840A49088000840A4A0880008E
:1003E000840A4B088000840A4C088000840A4D0867
:1003F00080000800543084006030512083014A2975
:02400E009E38DA
:00000001FF
