:100000008316FF2390008312F82B00308A00040827
:0C001000840A82070034013407340634EF
:10038800C8210800640008000630E821080064223B
:100398008B13CD2917303F22080081010B1108006B
:1003A8004414440885000800210822062006FF3A64
:1003B8000800FE30C405440885000800851EE629AB
:1003C80001300800003008008312A0002009C4058D
:1003D80044088500080064008001840A04060319A3
:1003E80000340406F0298312A00104302002031807
:1003F80008000B1DFD290B1101308312A007F929F4
:100408000730831299009F0183169F0120309500C1
:100418000C30810010088312C5000800A1000130CB
:10042800A000210A192A0310A00DFF3E031D172A58
:100438002008C404440885000800C821D4210230DB
:1004480012221030A3009430A200A20B292AA30B79
:10045800292A0000C8210800C821DD210130122204
:100468001030A3009430A200A20B382AA30B382A1C
:100478000000C8210800A000073099009F01F03053
:1004880083169F0583122009C405440885002009A6
:100498003F39831685000800A1002008A200210822
:1004A800031D5D2A193020020318622A0130A207B1
:1004B800622A20080319622A0130A20222080800D1
:1004C800F930831695050630850483129F01F030B4
:1004D80083169F05073083129900EF30C405C421A5
:1004E800F930831685050800A3003D08A4003E08DE
:1004F800A5003F08A6002308031D862A0130A40092
:100508001930A6002408A0002508A1002608A2008A
:100518000800A6002608031D932AA001982A26038E
:10052800031D9C2AA001A00A0730D822A7009D2AF3
:10053800A7012708031DA22A01300800003008007F
:10054800831615088312A1003730A1058316010D03
:10055800010D01398312A000A20120302106031DDC
:10056800BA2A2008031DBA2A0130A200220808006E
:10057800C6210422CE213022E22178222008A700B9
:100588002108A8002208A9002708A0002808A1001F
:100598002908A200D821C3002708C0002808C100E4
:1005A8002908C200D1210800A1008316050883127A
:1005B800A4003F30A4054408A5001730A505050888
:1005C800A2001730A205A30128302406031DFA2A29
:1005D80024082105031DFA2A25082006031DFA2AE6
:1005E80022082506031DFA2A0130A3002308080063
:1005F800831601088312A0001908A3000730A30579
:100608001F080139A10083161F088312A4000F30A8
:10061800A405831610088312A200A5010C30200639
:10062800031D262B07302306031D262B2108031D37
:10063800262B2408031D262B45082206031D262BDE
:100648000130A500250808002830840037088313E6
:100658008000840A38088000840A39088000840AE7
:100668003A088000840A3B088000840A3C0880001D
:100678002008A8002108A900AA01AB01AC01AD011E
:10068800612B08302202031C712B0130AC00193099
:10069800AD000130A8000130AA002108031D572B26
:1006A8000130A900712BA901712B2208031D712BA0
:1006B800A801712B0130AB00712B2008A600A701FF
:1006C8002708003A0319692B5E2B2608003A0319FC
:1006D800452B013A0319592B5E2B2030840028083A
:1006E8008000840A29088000840A2A088000840A75
:1006F8002B088000840A2C088000840A2D088000BA
:100708000800BC22F7214008B4004108B50042089F
:10071800B6003408A0003508A1003608A200D82188
:100728004306031DB02B023034020318B02B1A30D5
:1007380036020318B02B023035020318B02BA4225E
:10074800003A0319B02B35088D22003A031DB02B4F
:10075800FC22003A031DB12BCB2183123608A000DE
:10076800E2215022B6003408A0003508A10036085E
:10077800A20028232E30840020088000840A210843
:100788008000840A22088000840A23088000840AE2
:1007980024088000840A250880002E08B4002F0849
:1007A800B50032080319DA2B3308B6003408A00064
:1007B8003508A1003608A200D821C3003408C000BB
:1007C8003508C1003608C20031080319ED2BCB21CA
:1007D800F62B30080319F62B2F08031DF52B3022B2
:1007E800F62B2122C621862B83133730840045300F
:0607F800EF218301852BB7
:02400E00CC31B3
:00000001FF
