:02000000FA29DB
:1000DA008B136E2807140800640008000730AB2051
:1000EA000800FE30870508006F200130CD20080087
:1000FA008C1C7D288C10080076200130C020080056
:10010A00851D892801300800003008007C309200E3
:10011A00053093008C10080064008001840A0406EC
:10012A000319003404069228C00006084005031D7E
:10013A00A028013008000030080003309920003A56
:10014A00031DA9280130080000300800C00040093A
:10015A0088054009870540090F39860008001008FC
:10016A008F3940389000880189158E133008C139BB
:10017A001038B0000800C1000130C000410AC72889
:10018A000310C00DFF3E031DC52840088704080060
:10019A00C1000130C000410AD4280310C00DFF3E3F
:1001AA00031DD2284008FF3A8705080071207320F2
:1001BA00B4208120852010214008DD004108DE009E
:1001CA004208DF008B2008000908C1000830C10579
:1001DA000E0D0E0D0139C000C20141080319FA289B
:1001EA004008031DFA280130C20042080800C10075
:1001FA004008C2004108031D0929193040020318AA
:10020A000E290130C2070E29400803190E290130B0
:10021A00C20242080800C3005A08C4005B08C500AD
:10022A005C08C6004308031D1E290130C4001930AA
:10023A00C6004408C0004508C1004608C2000800BC
:10024A00100E0739C000300C1F39C1001208C20055
:10025A001308C3000808C4000730C405C5010430E8
:10026A004006031D492908304106031D49297C30EF
:10027A004206031D492905304306031D492944083E
:10028A00031D49290130C50045080800DB207D20EF
:10029A0002305D02031865291A305F0203186529C6
:1002AA0002305E0203186529E920003A031965291C
:1002BA00A220003A031D65292521003A031D66295B
:1002CA006D205F08C0008520FC20DF005D08C000AB
:1002DA005E08C1005F08C2009E214E3084004008BB
:1002EA008000840A41088000840A42088000840A47
:1002FA0043088000840A44088000840A4508800074
:10030A004E08DD004F08DE00520803198E295308F3
:10031A00DF005108031993296D209C2950080319FD
:10032A009C294F08031D9B2981209C297920712033
:10033A004C294830840054088000840A55088000FB
:10034A00840A56088000840A57088000840A5808DC
:10035A008000840A590880004008C8004108C90082
:10036A00CA01CB01CC01CD01D62908304202031CB7
:10037A00E6290130CC001930CD000130C800013027
:10038A00CA004108031DCC290130C900E629C90168
:10039A00E6294208031DE629C801E6290130CB00F7
:1003AA00E6294008C600C7014708003A0319DE29B2
:1003BA00D3294608003A0319BA29013A0319CE2962
:1003CA00D3294030840048088000840A4908800004
:1003DA00840A4A088000840A4B088000840A4C0870
:1003EA008000840A4D088000080054308400603080
:0603FA00912083014B2954
:02400E009E38DA
:00000001FF
