:1000000019C028C027C026C025C024C023C022C0D4
:1000100021C020C01FC01EC01DC05BC01BC01AC0B5
:1000200019C018C017C016C015C014C013C012C024
:1000300011C010C011241FBECFEFCDBFDFE3DEBF64
:100040002FE3A0E8BFE301C01D92A538B207E1F796
:100050008AD0B8C1D5CF82E080930504089582E0AC
:1000600080930604089521E030E001C0220F8A95B4
:10007000EAF720930504089521E030E001C0220F43
:100080008A95EAF7209306040895E0E0F4E0868379
:10009000808308957091000490910404509111049C
:1000A0004091120430911304209116047E3479F4A7
:1000B000782F7E7478130BC09E74961308C051116C
:1000C00006C0411104C0311102C081E0211180E05D
:1000D00008951F920F920FB60F921124CF92DF92C4
:1000E000EF922F933F934F935F936F937F938F93F1
:1000F0009F93AF93BF93CF93EF93FF9381E0809350
:10010000460A1092843FC090813FD090823FE09099
:10011000833F8E2DB6013AD19091803F89130EC056
:10012000809108046E2D881F8827881FEFD0C82F64
:10013000B6012CD18093803FC093833FFF91EF9114
:10014000CF91BF91AF919F918F917F916F915F916F
:100150004F913F912F91EF90DF90CF900F900FBE76
:100160000F901F901895CDB7DEB72697CDBFDEBF95
:10017000F894A8951ED188ED84BF85E08093610036
:1001800088E080931704809140008093400013D151
:1001900080910804881F8827881FEFD06B01E82E04
:1001A000F5D08093803FC092813FD092823FE09211
:1001B000833F81E08093843F2FEC37E020934C0A0B
:1001C00030934D0A10924A0A10924B0A1092410A3B
:1001D0008093460A8093450A8093400A809150009C
:1001E000897F809350007894FF24F3948091813F1D
:1001F000823018F0E6D0F894FFCF8091823F8230B1
:10020000C8F78091843F8230A8F78091833F8A317C
:1002100088F780911704883069F7709161006091C8
:100220000001509101014091400A9091410A809152
:10023000450A20914C0A30914D0A7530D9F6663046
:10024000C9F657FFD7CF4130A9F69111D3CF8130EE
:1002500089F681E090E02F3C374011F090E080E09B
:10026000892B41F28091823F95D08111C3CF80913B
:10027000843F81113DC0BFB6F894C090813FD090BB
:10028000823FE090833F0E2DF092843F8E2DB60189
:100290007DD09091803F891719F093D0F894FFCFCB
:1002A0008E2DB6013ED0132F29833A834B835C8376
:1002B0006D837E836111072FC22ED12EE02E802FF9
:1002C000B60164D08093803FC092813FD092823F3C
:1002D000E092833FBFBEA8958C81882319F071D02E
:1002E000F894FFCF8B81882319F011110DC063D0D2
:1002F00080915000816080935000889580915000DB
:100300008E7F8093500072CF59D0F2CF811105C0FB
:10031000693108F46F5F862F08956623E1F3615019
:10032000FACFCF93DF93CDB7DEB72697CDBFDEBF31
:100330009B01662329F06130A9F070E051E017C0FD
:100340008830B8F031E0711130E050E079E161E0DF
:1003500021E0462F80E090E02696CDBFDEBFDF9102
:10036000CF910895811101C020E070E050E060E07D
:10037000F0CF50E060E070E0ECCF811104C089E183
:1003800061E070E0089580E060E0FBCF672786279A
:100390008095089560E0882319F0813041F466E08B
:1003A00086E078DE91E0811190E0892F089580E069
:1003B000F9CF8EE46ACE53DE82E05ECE4CDE82E080
:0803C00052CE0895F894FFCF1E
:00000001FF
