:100000000EC01DC01CC01BC01AC019C018C017C02C
:1000100016C015C03DC013C012C011C010C01124BD
:100020001FBECFE5D2E0DEBFCDBF20E0A0E6B0E04E
:1000300001C01D92A536B207E1F76ED08FC1E0CFA7
:10004000C19A0895C198089598B321E030E001C0A5
:10005000220F8A95EAF7922B98BB089598B321E076
:1000600030E001C0220F8A95EAF72095292328BBAA
:10007000089587BB089527B398B32E3139F4282FFC
:100080002E71281303C09E7181E0961380E00895BD
:100090001F920F920FB60F921124CF92DF92EF9220
:1000A0002F933F934F935F936F937F938F939F9380
:1000B000AF93BF93CF93EF93FF9310926400C090E0
:1000C0006100D0906200E09063008E2DB6012AD1CD
:1000D0009091600089130BC086B36E2D8170DFD0C4
:1000E000C82FB6011FD180936000C0936300FF91B9
:1000F000EF91CF91BF91AF919F918F917F916F9130
:100100005F914F913F912F91EF90DF90CF900F90A3
:100110000FBE0F901F901895CDB7DEB72697DEBFA4
:10012000CDBFF894A89584B7877F84BF88E19CE011
:100130000FB6F894A89581BD0FBE91BD06D180E899
:1001400093E00FB6F89486BD96BD0FBE16B888B979
:1001500080B58F6080BD80B58B7F80BD11E018BBFE
:100160001BBE15BAF4D086B38170D3D06B01E82ED4
:10017000D9D080936000C0926100D0926200E0927A
:1001800063001093640082E08ABD83BF8CE789BD61
:1001900012BE80E189BF88BF85B7877E85BF78940E
:1001A000FF24F39480916100823018F0D6D0F89447
:1001B000FFCF809162008230C8F780916400823066
:1001C000A8F7809163008A3188F7C09BEFCF56B5BE
:1001D00041B53AB593B789B529B7533039F74C30A3
:1001E00029F7323019F7923009F78C37F9F681E0A8
:1001F00090E0203111F090E080E0892BB9F28091FD
:10020000620094D08111D2CF8091640081113DC0F1
:10021000BFB6F894C0906100D0906200E090630097
:100220000E2DF09264008E2DB6017CD0909160006E
:10023000891719F092D0F894FFCF8E2DB6013AD0DD
:10024000132F29833A834B835C836D837E836111F3
:10025000072FC22ED12EE02E802FB60163D08093BF
:100260006000C0926100D0926200E0926300BFBE65
:10027000A8958C81882319F070D0F894FFCF8B81DA
:10028000882319F0111109C062D085B7806285BF3B
:10029000889585B78F7D85BF85CF5CD0F6CF8111DE
:1002A00005C0693108F46F5F862F08956623E1F376
:1002B0006150FACFCF93DF9300D000D000D0CDB7FC
:1002C000DEB79B01662329F06130C1F070E051E098
:1002D0001AC08830D0F031E0711130E050E079E19F
:1002E00061E021E0462F80E090E026960FB6F8947A
:1002F000DEBF0FBECDBFDF91CF910895811101C048
:1003000020E070E050E060E0EDCF50E060E070E0B1
:10031000E9CF811104C089E161E070E0089580E0D7
:1003200060E0FBCF672786278095089560E08823EB
:1003300019F0813041F466E086E09DDE91E08111A4
:1003400090E0892F089580E0F9CF8EE192CE7ADE99
:1003500082E084CE75DE82E077CE0895F894FFCFF8
:00000001FF
