:100000008316FF2390008312F82B00308A00040827
:0A001000840A82070034013407342B
:100402008B13022A6400080017308E220800810133
:100412000B110800401440088500080001307D22BD
:1004220002307D220800FE30C00540088500080029
:10043200851E1D2A0130080000300800640080017A
:10044200840A0406031900340406202A8312A00138
:1004520004302002031808000B1D2D2A0B11013055
:100462008312A007292A0730831299009F0183165D
:100472009F01203095000C30810010088312C100CA
:1004820008000322342205226E221922B3222008F8
:10049200BD002108BE002208BF0008220800A100FA
:1004A2000130A000210A572A0310A00DFF3E031DB0
:1004B200552A2008C0044008850008000F220B229C
:1004C200023050221030A3009430A200A20B672AFF
:1004D200A30B672A00000F2208000F22142201300A
:1004E20050221030A3009430A200A20B762AA30B54
:1004F200762A00000F2208008312A1000130A0001A
:10050200210A852A0310A00DFF3E031D832A20081D
:10051200FF3AC005400885000800A0000730990096
:100522009F01F03083169F0583122009C005400801
:10053200850020093F39831685000800A1002008A4
:10054200A2002108031DAC2A193020020318B12A87
:100552000130A207B12A20080319B12A0130A202F0
:1005620022080800A3003A08A4003B08A5003C08A2
:10057200A6002308031DC12A0130A4001930A600D9
:100582002408A0002508A1002608A2000800A60051
:100592002608031DCE2AA001D32A2603031DD72A2B
:1005A200A001A00A0730F722A700D82AA70127082E
:1005B200031DDD2A013008000030080083161508EB
:1005C2008312A1003730A1058316010D010D0139F7
:1005D2008312A000A20120302106031DF52A200863
:1005E200031DF52A0130A20022080800A10083168B
:1005F20005088312A4003F30A4054008A500173067
:10060200A5050508A2001730A205A301283024067B
:10061200031D192B24082105031D192B250820066B
:10062200031D192B22082506031D192B0130A300D7
:1006320023080800831601088312A0001908A300EA
:100642000730A3051F080139A10083161F08831272
:10065200A4000F30A405831610088312A200A5017E
:100662000C302006031D452B07302306031D452BA6
:100672002108031D452B2408031D452B4108220692
:10068200031D452B0130A500250808004222272220
:1006920002303D020318622B1A303F020318622B0C
:1006A20002303E020318622BDF22003A0319622B4A
:1006B2003E08C822003A031D622B1B23003A031D89
:1006C200632B01223F08A00019229F22BF003D0890
:1006D200A0003E08A1003F08A2009B232E30840008
:1006E20020088000840A21088000840A22088000F1
:1006F200840A23088000840A24088000840A2508CA
:1007020080002E08BD002F08BE00320803198B2B73
:100712003308BF0031080319902B0122992B3008AE
:100722000319992B2F08031D982B6E22992B5F22F8
:100732000322482B28308400340883138000840A63
:1007420035088000840A36088000840A3708800051
:10075200840A38088000840A390880002008A8002A
:100762002108A900AA01AB01AC01AD01D42B0830CC
:100772002202031CE42B0130AC001930AD00013021
:10078200A8000130AA002108031DCA2B0130A900CC
:10079200E42BA901E42B2208031DE42BA801E42B7E
:1007A2000130AB00E42B2008A600A7012708003A7D
:1007B2000319DC2BD12B2608003A0319B82B013A76
:1007C2000319CC2BD12B2030840028088000840A06
:1007D20029088000840A2A088000840A2B088000E5
:1007E200840A2C088000840A2D08800008008313E4
:0C07F2003430840041301F228301472B6B
:02400E00CC31B3
:00000001FF
