:100000008316FF2390008312F82B00308A00040827
:08001000840A82070034033466
:100438008B131D2A6400080017308E2208008101E2
:100448000B110800401440088500080026220130DE
:100458006F220800382201307E220800851E362AC5
:100468000130080000300800FE308312C005400843
:100478008500080064008001840A0406031900341A
:1004880004063F2A8312A001043020020318080042
:100498000B1D4C2A0B1101308312A007482A073084
:1004A800831299009F0183169F01203095000C301C
:1004B800810010088312C10008001E225322202246
:1004C8002E223222B3222008BD002108BE002208B5
:1004D800BF0023220800A1000130A000210A762ACB
:1004E8000310A00DFF3E031D742A2008C004400815
:1004F80085000800A1000130A000210A852A031008
:10050800A00DFF3E031D832A2008FF3AC0054008BE
:1005180085000800A000073099009F01F03083167D
:100528009F0583122009C0054008850020093F392E
:10053800831685000800A1002008A2002108031DD9
:10054800AC2A193020020318B12A0130A207B12AB7
:1005580020080319B12A0130A20222080800A300CA
:100568003A08A4003B08A5003C08A6002308031D80
:10057800C12A0130A4001930A6002408A0002508CB
:10058800A1002608A2000800A6002608031DCE2AFE
:10059800A001D32A2603031DD72A0330A000033065
:1005A800F722A700D82AA7012708031DDD2A013052
:1005B800080000300800831615088312A1003730A0
:1005C800A1058316010D010D01398312A000A201B6
:1005D80020302106031DF52A2008031DF52A0130C5
:1005E800A20022080800A100831605088312A400AF
:1005F8003F30A4054008A5001730A5050508A2004E
:100608001730A205A30128302406031D192B24083E
:100618002105031D192B25082006031D192B220867
:100628002506031D192B0130A30023080800831693
:1006380001088312A0001908A3000730A3051F08AA
:100648000139A10083161F088312A4000F30A405E6
:10065800831610088312A200A5010C302006031D82
:10066800452B07302306031D452B2108031D452B69
:100678002408031D452B41082206031D452B013084
:10068800A500250808006122462202303D02031811
:10069800622B1A303F020318622B02303E02031805
:1006A800622BDF22003A0319622B3E08C822003A67
:1006B800031D622B1B23003A031D632B1C223F08DA
:1006C800A00032229F22BF003D08A0003E08A100E2
:1006D8003F08A2009B232E30840020088000840A53
:1006E80021088000840A22088000840A23088000E8
:1006F800840A24088000840A250880002E08BD008A
:100708002F08BE00320803198B2B3308BF003108AD
:100718000319902B1C22992B30080319992B2F08A9
:10072800031D982B2E22992B2A221E22482B283073
:100738008400340883138000840A35088000840A02
:1007480036088000840A37088000840A3808800048
:10075800840A390880002008A8002108A900AA01F5
:10076800AB01AC01AD01D42B08302202031CE42BF1
:100778000130AC001930AD000130A8000130AA00EA
:100788002108031DCA2B0130A900E42BA901E42B81
:100798002208031DE42BA801E42B0130AB00E42B55
:1007A8002008A600A7012708003A0319DC2BD12B43
:1007B8002608003A0319B82B013A0319CC2BD12B80
:1007C8002030840028088000840A29088000840AD0
:1007D8002A088000840A2B088000840A2C088000DC
:1007E800840A2D08800008008313343084004130C7
:0607F8003E228301472BA5
:02400E00CC31B3
:00000001FF
