:100000008316FF2390008312F82B00308A00040827
:08001000840A82070034073462
:100404008B13032A6400080017307C220800810142
:100414000B1108004014400885000800851E142AAA
:100424000130080000300800FE308312C005400887
:100434008500080064008001840A0406031900345E
:1004440004061D2A8312A0010430200203180800A8
:100454000B1D2A2A0B1101308312A007262A07300C
:10046400831299009F0183169F01203095000C3060
:10047400810010088312C1000800162201306B228B
:100484000730A3007D30A200A20B462AA30B462A04
:1004940002306B2208000422312206223F2210225D
:1004A400B3222008BD002108BE002208BF00092293
:1004B40008008312A1000130A000210A632A03105E
:1004C400A00DFF3E031D612A2008C00440088500DA
:1004D40008008312A1000130A000210A732A03102E
:1004E400A00DFF3E031D712A2008FF3AC0054008F5
:1004F40085000800A000073099009F01F0308316A2
:100504009F0583122009C0054008850020093F3952
:1005140083168500080001306B2202306B220C2206
:1005240002305B220730A3007D30A200A20B982A80
:10053400A30B982A01305B220800A1002008A20026
:100544002108031DAC2A193020020318B12A0130F6
:10055400A207B12A20080319B12A0130A2022208F5
:100564000800A3003A08A4003B08A5003C08A60024
:100574002308031DC12A0130A4001930A600240851
:10058400A0002508A1002608A2000800A60026084D
:10059400031DCE2AA001D32A2603031DD72A073020
:1005A400A0000730F722A700D82AA7012708031DB7
:1005B400DD2A013008000030080083161508831274
:1005C400A1003730A1058316010D010D01398312F5
:1005D400A000A20120302106031DF52A2008031DD6
:1005E400F52A0130A20022080800A100831605089C
:1005F4008312A4003F30A4054008A5001730A505C8
:100604000508A2001730A205A30128302406031D03
:10061400192B24082105031D192B25082006031D69
:10062400192B22082506031D192B0130A3002308CA
:100634000800831601088312A0001908A3000730DC
:10064400A3051F080139A10083161F088312A40003
:100654000F30A405831610088312A200A5010C30E4
:100664002006031D452B07302306031D452B2108B7
:10067400031D452B2408031D452B41082206031D99
:10068400452B0130A500250808004D222422023004
:100694003D020318622B1A303F020318622B02300A
:1006A4003E020318622BDF22003A0319622B3E0834
:1006B400C822003A031D622B1B23003A031D632B3F
:1006C40002223F08A00010229F22BF003D08A00084
:1006D4003E08A1003F08A2009B232E30840020087E
:1006E4008000840A21088000840A22088000840A89
:1006F40023088000840A24088000840A25088000D6
:100704002E08BD002F08BE00320803198B2B3308B6
:10071400BF0031080319902B0222992B30080319CA
:10072400992B2F08031D982B3F22992B8D220422ED
:10073400482B28308400340883138000840A350849
:100744008000840A36088000840A37088000840AFE
:1007540038088000840A390880002008A80021088D
:10076400A900AA01AB01AC01AD01D42B08302202CF
:10077400031CE42B0130AC001930AD000130A8009B
:100784000130AA002108031DCA2B0130A900E42B63
:10079400A901E42B2208031DE42BA801E42B01305A
:1007A400AB00E42B2008A600A7012708003A031990
:1007B400DC2BD12B2608003A0319B82B013A031974
:1007C400CC2BD12B2030840028088000840A2908EF
:1007D4008000840A2A088000840A2B088000840A86
:1007E4002C088000840A2D0880000800831334300C
:0A07F400840041301C228301472BD2
:02400E00CC31B3
:00000001FF
