:100000000EC01DC01CC01BC01AC019C018C017C02C
:1000100016C015C037C013C012C011C010C01124C3
:100020001FBECFE5D1E0DEBFCDBF20E0A0E6B0E04F
:1000300001C01D92A436B207E1F753D03AC1E0CF18
:10004000C19A0895C198089598B321E030E001C0A5
:10005000220F8A95EAF7922B98BB089598B321E076
:1000600030E001C0220F8A95EAF72095292328BBAA
:10007000089587BB0895282F97B3982381E09213A2
:1000800080E008951F920F920FB60F9211242F93C4
:100090003F934F935F936F937F938F939F93AF9310
:1000A000BF93CF93DF93EF93FF9310926300C0E66B
:1000B000D0E06A8186B3817096D08A83FF91EF91F8
:1000C000DF91CF91BF91AF919F918F917F916F9170
:1000D0005F914F913F912F910F900FBE0F901F9006
:1000E0001895CDB7DEB72697DEBFCDBFF894A8959B
:1000F00084B7877F84BF88E19CE00FB6F894A89509
:1001000081BD0FBE91BDBDD080E893E00FB6F894DD
:1001100086BD96BD0FBE16B888B980B58F6080BD0C
:1001200080B58B7F80BD11E018BB1BBE15BAABD06C
:1001300086B3817092D06093600070936100809369
:1001400062001093630082E08ABD83BF8CE789BDA3
:1001500012BE80E189BF88BF85B7877E85BF78944E
:1001600080916000823010F0F894FFCF80916100A0
:100170008230D0F7809163008230B0F7C09BF4CF1B
:1001800079D08111F1CF80916300811122C0109349
:100190006300A89560916000709161008091620099
:1001A0002DD029833A834B835C836D837E83209398
:1001B0006000309361006111709362008C8188232C
:1001C00011F0F894FFCF8B81882319F0311109C009
:1001D0005AD085B7806285BF889585B78F7D85BFEA
:1001E000BFCF5CD0F6CF811105C0693108F46F5FD5
:1001F000862F08956623E1F36150FACFCF93DF9302
:1002000000D000D000D0CDB7DEB79B01662329F027
:100210006130C1F070E051E01AC08830D0F031E0B8
:10022000711130E050E079E161E021E0462F80E09B
:1002300090E026960FB6F894DEBF0FBECDBFDF91DB
:10024000CF910895811101C020E070E050E060E09E
:10025000EDCF50E060E070E0E9CF811104C089E1AA
:1002600061E070E0089580E060E0FBCF82E0F6DEC0
:1002700083E0F4CE8EE0FFDE91E0811190E0892FE3
:1002800008958EE1F6CEF2DFDDDE82E0DDDE87EB83
:100290009BE00197F1F700C00000E8CFE7DFD0DE78
:1002A00083E0D2DE87EB9BE00197F1F700C000000E
:0602B000DDCFF894FFCF42
:00000001FF
