:02000000FA29DB
:1000FE008B13802807140800640008000730B52011
:10010E000800FE30870508008C1C8B288C10080018
:10011E00851D93280130080000300800F930920048
:10012E00073093008C10080064008001840A0406D6
:10013E000319003404069C28C00006084005031D60
:10014E00AA2801300800003008000730A320003A2A
:10015E00031DB3280130080000300800C00040091C
:10016E0088054009870540090F3986000800703060
:10017E009004880189158E133008C1391038B000EB
:10018E000800C1000130C000410ACF280310C00D85
:10019E00FF3E031DCD28400887040800C100013032
:1001AE00C000410ADC280310C00DFF3E031DDA28F3
:1001BE004008FF3A8705080083208520BE201721BE
:1001CE008F203E214008DD004108DE004208DF009E
:1001DE00952008000908C1000830C1050E0D0E0D4E
:1001EE000139C000C2014108031902294008031D4C
:1001FE0002290130C200420808000130C820023036
:10020E00C82081200230D5201A30C300F830C20039
:10021E00C20B0F29C30B0F2900000130D520080097
:10022E000130D5200230D52088200130C8201A3068
:10023E00C300F830C200C20B2229C30B22290000D2
:10024E000230C8200800C1004008C2004108031D4A
:10025E0037291930400203183C290130C2073C29C6
:10026E00400803193C290130C20242080800C300AD
:10027E005A08C4005B08C5005C08C6004308031D8D
:10028E004C290130C4001930C6004408C00045088E
:10029E00C1004608C2000800E3208B2002305D0238
:1002AE000318652902305E0203186529F120003A11
:1002BE0003196529AC20003A031966297F205F08CF
:1002CE00C0008F202A21DF005D08C0005E08C1003B
:1002DE005F08C2009E214E30840040088000840AD0
:1002EE0041088000840A42088000840A4308800086
:1002FE00840A44088000840A450880004E08DD0008
:10030E004F08DE00520803198E295308DF005108EA
:10031E00031993297F209C29500803199C294F0803
:10032E00031D9B2917219C29042183205429483021
:10033E00840054088000840A55088000840A5608F8
:10034E008000840A57088000840A58088000840AB6
:10035E00590880004008C8004108C900CA01CB01F5
:10036E00CC01CD01D62908304202031CE62901300A
:10037E00CC001930CD000130C8000130CA00410850
:10038E00031DCC290130C900E629C901E62942081E
:10039E00031DE629C801E6290130CB00E6294008F5
:1003AE00C600C7014708003A0319DE29D3294608BB
:1003BE00003A0319BA29013A0319CE29D32940303C
:1003CE00840048088000840A49088000840A4A088C
:1003DE008000840A4B088000840A4C088000840A3E
:1003EE004D08800008005430840060309B2083014B
:0203FE00532981
:02400E009E38DA
:00000001FF
