:100000000128C501C601C7018301062860208C1C98
:1000100007288C10E4200230450203182328023000
:100020004602031823281A304702031823289E206B
:10003000003A031923288320003A03192328C720F4
:10004000003A03192428F320D520003A031D2F2855
:100050001930470203184E280130C7074E284708B9
:1000600003194E280130C7024E2808304702031CEE
:100070005E281930C7000130C5004608031D44281A
:100080000130C600DB205E28C601CF205E2847086D
:10009000031D5E28C5015E28F3205E284508C300C5
:1000A000C4014408003A031956284C284308003A72
:1000B00003193528013A031947284C2864000728FA
:1000C0006400F83087050830860010088F39403802
:1000D00090008801083089008E133008C13910382B
:1000E000B000CF20C501C601C701D520003A031DCD
:1000F0007D280130C5001930C7007C3092000530E2
:1001000093008C100800C001100E0739043A031D3B
:100110009C28300C1F39083A031D9C287C3012069D
:10012000031D9C2805301306031D9C280808073969
:10013000031D9C280130C000400808000908C100C8
:100140000F30C1050E0D0E0D0139C000C20108307F
:100150004106031DB0284008031DB0280130C2002D
:10016000420808000F300605C00008304006031D95
:10017000BB2801300800003008000830C100C93039
:10018000C000C00BC128C10BC128C6280800B2207E
:10019000003A031DCD280130080000300800E4209B
:1001A000E120ED20BD20E4200800851DD928013084
:1001B000080000300800E420F120EF20BD20E420FA
:1001C0000800FE3087050800EA20E7200800FB3021
:1001D00087050800FD30870508008714080007150B
:0A01E0000800071408008B13F42830
:02400E009E38DA
:00000001FF
