:10000000FA2900308A000408840A82070034033485
:10005800080007140800640008002C208B133328BC
:1000680007305F200800FE30870508002D2001308A
:10007800682008008C1C3E288C10080037200130AE
:1000880082200800410842064006FF3A0800851D04
:100098004F2801300800003008007C3092000530FD
:1000A80093008C10080064008001840A0406031978
:1000B800003404065828C00040098805400987050F
:1000C80040090F3986000800C1000130C000410A0C
:1000D8006F280310C00DFF3E031D6D2840088704DC
:1000E800080010088F3940389000880108308900CE
:1000F8008E133008C1391038B0000800C100013033
:10010800C000410A89280310C00DFF3E031D87283F
:100118004008FF3A87050800C00109080F39083A66
:10012800C0040E0D0E0D0139C0044008031D9E28A1
:100138000130080000300800C1004008C200410832
:10014800031DAD28193040020318B2280130C20738
:10015800B22840080319B2280130C2024208080038
:10016800C3005D08C4005E08C5005F08C6004308F8
:10017800031DC2280130C4001930C6004408C0005D
:100188004508C1004608C2000800C1000608C300AF
:100198000F30C305C2014308083AC20443084105A9
:1001A800C204070807394006C2044208031DDE28B6
:1001B8000130080000300800C4004408031DE62888
:1001C800C001EB284403031DEF280330C0000330AF
:1001D800C920C500F028C5014508031DF5280130D0
:1001E800080000300800C001100E0739043AC004A6
:1001F800300C1F39083AC00412087C3AC0041308AE
:10020800053AC00408080739C0044008031D0E2930
:1002180001300800003008002F20342075204220CB
:100228004B20B4204008C7004108C8004208C90054
:100238004708C0004808C1004908C2004620E3003A
:100248004708E0004808E1004908E200512008009A
:100258004830840057088000840A58088000840ABF
:1002680059088000840A5A088000840A5B088000C4
:10027800840A5C0880004008C8004108C900CA0117
:10028800CB01CC01CD01642908304202031C74293A
:100298000130CC001930CD000130C8000130CA004F
:1002A8004108031D5A290130C9007429C90174295C
:1002B8004208031D7429C80174290130CB00742930
:1002C8004008C600C7014708003A03196C2961298C
:1002D8004608003A03194829013A03195C2961299B
:1002E8004030840048088000840A49088000840A55
:1002F8004A088000840A4B088000840A4C08800061
:10030800840A4D088000080010213E206008D400AF
:100318006108D5006208D6005408C0005508C1001D
:100328005608C20046206306031DB3290230540252
:100338000318B3291A3056020318B329023055029C
:100348000318B3299020003A0319B3295508E0206F
:10035800003A031DB329F720003A031DB4293120C0
:100368005608C0004B20A020D6005408C0005508ED
:10037800C1005608C2002C214E308400400880007D
:10038800840A41088000840A42088000840A4308DD
:100398008000840A44088000840A450880004E08CA
:1003A800D4004F08D50052080319DC295308D60099
:1003B8005408C0005508C1005608C2004620E30092
:1003C8005408E0005508E1005608E20051080319F6
:1003D800EF293120F82950080319F8294F08031D7F
:1003E800F7294220F8293A202F20892957308400FC
:0803F8006430572083018829BD
:02400E009E38DA
:00000001FF
