:10000000FA2900308A000408840A82070034073481
:100024000800071408006400080012208B13192824
:1000340007303D200800FE30870508008C1C20286E
:100044008C100800410842064006FF3A0800851D4E
:100054002D2801300800003008007C309200053063
:1000640093008C10080064008001840A04060319BC
:10007400003404063628C000400988054009870575
:1000840040090F3986000800C1000130C000410A50
:100094004D280310C00DFF3E031D4B284008870464
:1000A400080010088F394038900088010830890012
:1000B4008E133008C1391038B0000800C100013077
:1000C400C000410A67280310C00DFF3E031D6528C8
:1000D4004008FF3A870508001D20013060200430E5
:1000E400C3003D30C200C20B7528C30B75287A28A3
:1000F400023060200800C00109080F39083AC00422
:100104000E0D0E0D0139C0044008031D8B2801306B
:100114000800003008000130602002306020132005
:10012400023046200430C3003D30C200C20B982880
:10013400C30B98289D28013046200800C1004008C0
:10014400C2004108031DAD28193040020318B2282B
:100154000130C207B22840080319B2280130C20294
:1001640042080800C3005D08C4005E08C5005F08BB
:10017400C6004308031DC2280130C4001930C6005C
:100184004408C0004508C1004608C2000800C10078
:100194000608C3000F30C305C2014308083AC2046D
:1001A40043084105C204070807394006C20442084F
:1001B400031DDE280130080000300800C400440894
:1001C400031DE628C001EB284403031DEF28073074
:1001D400C0000730C920C500F028C5014508031D2B
:1001E400F5280130080000300800C001100E07395E
:1001F400043AC004300C1F39083AC00412087C3A8F
:10020400C0041308053AC00408080739C0044008AC
:10021400031D0E29013008000030080015201A20A3
:1002240053206E202920B4204008C7004108C8008C
:100234004208C9004708C0004808C1004908C20074
:100244002420E3004708E0004808E1004908E200F0
:100254002F2008004830840057088000840A58087A
:100264008000840A59088000840A5A088000840A9D
:100274005B088000840A5C0880004008C8004108CC
:10028400C900CA01CB01CC01CD0164290830420266
:10029400031C74290130CC001930CD000130C80092
:1002A4000130CA004108031D5A290130C9007429CC
:1002B400C90174294208031D7429C8017429013035
:1002C400CB0074294008C600C7014708003A031947
:1002D4006C2961294608003A03194829013A03198F
:1002E4005C2961294030840048088000840A490858
:1002F4008000840A4A088000840A4B088000840A2B
:100304004C088000840A4D08800008001021202039
:100314006008D4006108D5006208D6005408C00003
:100324005508C1005608C20024206306031DB329E2
:10033400023054020318B3291A3056020318B329A1
:10034400023055020318B3297D20003A0319B3295A
:100354005508E020003A031DB329F720003A031D95
:10036400B42917205608C0002920A020D60054081C
:10037400C0005508C1005608C2002C214E3084002C
:1003840040088000840A41088000840A42088000F2
:10039400840A43088000840A44088000840A4508CB
:1003A40080004E08D4004F08D50052080319DC29F8
:1003B4005308D6005408C0005508C1005608C200AE
:1003C4002420E3005408E0005508E1005608E20048
:1003D40051080319EF291720F82950080319F8299F
:1003E4004F08031DF7296E20F8298D20152089292F
:0C03F400573084006430352083018829D4
:02400E009E38DA
:00000001FF
